:060000000A128A110C280F
:10000800FE00030EF2000A08F3000A128A111528EE
:100018000A128A110F28F601F70183010A128A11C0
:10002800DE28831203130C1F1A281B2862281F0CB2
:10003800F000700C0F39003A031D232824283C28AF
:100048001E08F0000310700C2D3E950097121E0834
:10005800F00007300310F00CFF3E031D2E28700837
:10006800F100F10E17087106EF3971069700612843
:100078001F0CF000700C0F39013A031D4428452865
:100088005D281E08F0000310700C2D3E9B009D1289
:100098001E08F00007300310F00CFF3E031D4F2828
:1000A8007008F100F10E1D087106EF3971069D0008
:1000B80061281E08F0007008F7000C130B1D652856
:1000C800662877280B110130F0007008F607FA301F
:1000D8008100770876020318722873287528081497
:1000E800762808100B1173088A00720E8300FE0E22
:1000F8007E0E090007308316031788008901FF3038
:100108008316031385008801831203138501880170
:10011800831603130F088F3960388F000F1481126C
:1001280001128111011181140110FA308312031395
:1001380081000B118B161F083F3940389F00C330D0
:100148009F05831603139F131F129F120715871409
:100158009B3092003F308312031397051708F0393C
:100168000C3897001D08F0390C389D000F309500A9
:10017800CF3097050F309B001D128C10033092046E
:1001880012158C1CC828C928C5280C1083160313FF
:1001980007118710831203130C13831603130C170C
:1001A8000B178B171730F400F40BD828831203139E
:1001B8001F1408000A128A117E200A128A1183125B
:1001C80003139F141730F500F50BE8288312031367
:1001D8009F18EF28F028E6281F0CF500750C0F393A
:1001E800003A031DF828F928FE281F08C3390438E7
:1001F8009F000E291F0CF500750C0F39013A031DDD
:10020800062907290C291F08C33908389F000E2919
:10021800C3309F051730F500F50B1029831203131F
:0A0228009F14E6280A128A110C2820
:08400000FF3FFF3FFF3FFF3FC0
:04400E00D420FF3F7C
:00000001FF
